{
  "contractName": "Kittycontract",
  "abi": [
    {
      "inputs": [],
      "payable": false,
      "stateMutability": "nonpayable",
      "type": "constructor"
    },
    {
      "anonymous": false,
      "inputs": [
        {
          "indexed": true,
          "internalType": "address",
          "name": "owner",
          "type": "address"
        },
        {
          "indexed": true,
          "internalType": "address",
          "name": "approved",
          "type": "address"
        },
        {
          "indexed": true,
          "internalType": "uint256",
          "name": "tokenId",
          "type": "uint256"
        }
      ],
      "name": "Approval",
      "type": "event"
    },
    {
      "anonymous": false,
      "inputs": [
        {
          "indexed": true,
          "internalType": "address",
          "name": "owner",
          "type": "address"
        },
        {
          "indexed": true,
          "internalType": "address",
          "name": "operator",
          "type": "address"
        },
        {
          "indexed": false,
          "internalType": "bool",
          "name": "approved",
          "type": "bool"
        }
      ],
      "name": "ApprovalForAll",
      "type": "event"
    },
    {
      "anonymous": false,
      "inputs": [
        {
          "indexed": true,
          "internalType": "address",
          "name": "owner",
          "type": "address"
        },
        {
          "indexed": true,
          "internalType": "address",
          "name": "operator",
          "type": "address"
        },
        {
          "indexed": false,
          "internalType": "bool",
          "name": "approved",
          "type": "bool"
        }
      ],
      "name": "ApproveForAll",
      "type": "event"
    },
    {
      "anonymous": false,
      "inputs": [
        {
          "indexed": false,
          "internalType": "address",
          "name": "owner",
          "type": "address"
        },
        {
          "indexed": false,
          "internalType": "uint256",
          "name": "kittenId",
          "type": "uint256"
        },
        {
          "indexed": false,
          "internalType": "uint256",
          "name": "mumId",
          "type": "uint256"
        },
        {
          "indexed": false,
          "internalType": "uint256",
          "name": "dadId",
          "type": "uint256"
        },
        {
          "indexed": false,
          "internalType": "uint256",
          "name": "genes",
          "type": "uint256"
        }
      ],
      "name": "Birth",
      "type": "event"
    },
    {
      "anonymous": false,
      "inputs": [
        {
          "indexed": true,
          "internalType": "address",
          "name": "from",
          "type": "address"
        },
        {
          "indexed": true,
          "internalType": "address",
          "name": "to",
          "type": "address"
        },
        {
          "indexed": true,
          "internalType": "uint256",
          "name": "tokenId",
          "type": "uint256"
        }
      ],
      "name": "Transfer",
      "type": "event"
    },
    {
      "constant": true,
      "inputs": [],
      "name": "CREATION_LIMIT_GEN0",
      "outputs": [
        {
          "internalType": "uint256",
          "name": "",
          "type": "uint256"
        }
      ],
      "payable": false,
      "stateMutability": "view",
      "type": "function"
    },
    {
      "constant": true,
      "inputs": [],
      "name": "gen0Counter",
      "outputs": [
        {
          "internalType": "uint256",
          "name": "",
          "type": "uint256"
        }
      ],
      "payable": false,
      "stateMutability": "view",
      "type": "function"
    },
    {
      "constant": true,
      "inputs": [
        {
          "internalType": "uint256",
          "name": "",
          "type": "uint256"
        }
      ],
      "name": "kittyIndexToApproved",
      "outputs": [
        {
          "internalType": "address",
          "name": "",
          "type": "address"
        }
      ],
      "payable": false,
      "stateMutability": "view",
      "type": "function"
    },
    {
      "constant": true,
      "inputs": [
        {
          "internalType": "uint256",
          "name": "",
          "type": "uint256"
        }
      ],
      "name": "kittyIndexToOwner",
      "outputs": [
        {
          "internalType": "address",
          "name": "",
          "type": "address"
        }
      ],
      "payable": false,
      "stateMutability": "view",
      "type": "function"
    },
    {
      "constant": true,
      "inputs": [],
      "name": "name",
      "outputs": [
        {
          "internalType": "string",
          "name": "",
          "type": "string"
        }
      ],
      "payable": false,
      "stateMutability": "view",
      "type": "function"
    },
    {
      "constant": true,
      "inputs": [],
      "name": "symbol",
      "outputs": [
        {
          "internalType": "string",
          "name": "",
          "type": "string"
        }
      ],
      "payable": false,
      "stateMutability": "view",
      "type": "function"
    },
    {
      "constant": false,
      "inputs": [
        {
          "internalType": "uint256",
          "name": "_dadId",
          "type": "uint256"
        },
        {
          "internalType": "uint256",
          "name": "_mumId",
          "type": "uint256"
        }
      ],
      "name": "breed",
      "outputs": [
        {
          "internalType": "uint256",
          "name": "",
          "type": "uint256"
        }
      ],
      "payable": false,
      "stateMutability": "nonpayable",
      "type": "function"
    },
    {
      "constant": true,
      "inputs": [
        {
          "internalType": "bytes4",
          "name": "_interfaceId",
          "type": "bytes4"
        }
      ],
      "name": "supportsInterface",
      "outputs": [
        {
          "internalType": "bool",
          "name": "",
          "type": "bool"
        }
      ],
      "payable": false,
      "stateMutability": "view",
      "type": "function"
    },
    {
      "constant": false,
      "inputs": [
        {
          "internalType": "address",
          "name": "_from",
          "type": "address"
        },
        {
          "internalType": "address",
          "name": "_to",
          "type": "address"
        },
        {
          "internalType": "uint256",
          "name": "_tokenId",
          "type": "uint256"
        }
      ],
      "name": "safeTransferFrom",
      "outputs": [],
      "payable": false,
      "stateMutability": "nonpayable",
      "type": "function"
    },
    {
      "constant": false,
      "inputs": [
        {
          "internalType": "address",
          "name": "_from",
          "type": "address"
        },
        {
          "internalType": "address",
          "name": "_to",
          "type": "address"
        },
        {
          "internalType": "uint256",
          "name": "_tokenId",
          "type": "uint256"
        },
        {
          "internalType": "bytes",
          "name": "_data",
          "type": "bytes"
        }
      ],
      "name": "safeTransferFrom",
      "outputs": [],
      "payable": false,
      "stateMutability": "nonpayable",
      "type": "function"
    },
    {
      "constant": false,
      "inputs": [
        {
          "internalType": "uint256",
          "name": "_genes",
          "type": "uint256"
        }
      ],
      "name": "createKittyGen0",
      "outputs": [
        {
          "internalType": "uint256",
          "name": "",
          "type": "uint256"
        }
      ],
      "payable": false,
      "stateMutability": "nonpayable",
      "type": "function"
    },
    {
      "constant": true,
      "inputs": [
        {
          "internalType": "uint256",
          "name": "_id",
          "type": "uint256"
        }
      ],
      "name": "getKitty",
      "outputs": [
        {
          "internalType": "uint256",
          "name": "genes",
          "type": "uint256"
        },
        {
          "internalType": "uint256",
          "name": "birthTime",
          "type": "uint256"
        },
        {
          "internalType": "uint256",
          "name": "mumId",
          "type": "uint256"
        },
        {
          "internalType": "uint256",
          "name": "dadId",
          "type": "uint256"
        },
        {
          "internalType": "uint256",
          "name": "generation",
          "type": "uint256"
        }
      ],
      "payable": false,
      "stateMutability": "view",
      "type": "function"
    },
    {
      "constant": true,
      "inputs": [
        {
          "internalType": "address",
          "name": "owner",
          "type": "address"
        }
      ],
      "name": "balanceOf",
      "outputs": [
        {
          "internalType": "uint256",
          "name": "balance",
          "type": "uint256"
        }
      ],
      "payable": false,
      "stateMutability": "view",
      "type": "function"
    },
    {
      "constant": true,
      "inputs": [
        {
          "internalType": "uint256",
          "name": "_tokenId",
          "type": "uint256"
        }
      ],
      "name": "ownerOf",
      "outputs": [
        {
          "internalType": "address",
          "name": "owner",
          "type": "address"
        }
      ],
      "payable": false,
      "stateMutability": "view",
      "type": "function"
    },
    {
      "constant": false,
      "inputs": [
        {
          "internalType": "address",
          "name": "_to",
          "type": "address"
        },
        {
          "internalType": "uint256",
          "name": "_tokenId",
          "type": "uint256"
        }
      ],
      "name": "transfer",
      "outputs": [],
      "payable": false,
      "stateMutability": "nonpayable",
      "type": "function"
    },
    {
      "constant": true,
      "inputs": [],
      "name": "totalSupply",
      "outputs": [
        {
          "internalType": "uint256",
          "name": "total",
          "type": "uint256"
        }
      ],
      "payable": false,
      "stateMutability": "view",
      "type": "function"
    },
    {
      "constant": false,
      "inputs": [
        {
          "internalType": "address",
          "name": "_to",
          "type": "address"
        },
        {
          "internalType": "uint256",
          "name": "_tokenId",
          "type": "uint256"
        }
      ],
      "name": "approve",
      "outputs": [],
      "payable": false,
      "stateMutability": "nonpayable",
      "type": "function"
    },
    {
      "constant": false,
      "inputs": [
        {
          "internalType": "address",
          "name": "operator",
          "type": "address"
        },
        {
          "internalType": "bool",
          "name": "approved",
          "type": "bool"
        }
      ],
      "name": "setApprovalForAll",
      "outputs": [],
      "payable": false,
      "stateMutability": "nonpayable",
      "type": "function"
    },
    {
      "constant": true,
      "inputs": [
        {
          "internalType": "uint256",
          "name": "_tokenId",
          "type": "uint256"
        }
      ],
      "name": "getApproved",
      "outputs": [
        {
          "internalType": "address",
          "name": "",
          "type": "address"
        }
      ],
      "payable": false,
      "stateMutability": "view",
      "type": "function"
    },
    {
      "constant": true,
      "inputs": [
        {
          "internalType": "address",
          "name": "_owner",
          "type": "address"
        },
        {
          "internalType": "address",
          "name": "_operator",
          "type": "address"
        }
      ],
      "name": "isApprovedForAll",
      "outputs": [
        {
          "internalType": "bool",
          "name": "",
          "type": "bool"
        }
      ],
      "payable": false,
      "stateMutability": "view",
      "type": "function"
    },
    {
      "constant": false,
      "inputs": [
        {
          "internalType": "address",
          "name": "_from",
          "type": "address"
        },
        {
          "internalType": "address",
          "name": "_to",
          "type": "address"
        },
        {
          "internalType": "uint256",
          "name": "_tokenId",
          "type": "uint256"
        }
      ],
      "name": "transferFrom",
      "outputs": [],
      "payable": false,
      "stateMutability": "nonpayable",
      "type": "function"
    }
  ],
  "bytecode": "0x60806040523480156200001157600080fd5b50336000806101000a81548173ffffffffffffffffffffffffffffffffffffffff021916908373ffffffffffffffffffffffffffffffffffffffff1602179055506200008a60008060007fffffffffffffffffffffffffffffffffffffffffffffffffffffffffffffffff60006200009160201b60201c565b506200046b565b60006200009d62000422565b6040518060a001604052808581526020014267ffffffffffffffff1681526020018863ffffffff1681526020018763ffffffff1681526020018661ffff168152509050600060018083908060018154018082558091505090600182039060005260206000209060020201600090919290919091506000820151816000015560208201518160010160006101000a81548167ffffffffffffffff021916908367ffffffffffffffff16021790555060408201518160010160086101000a81548163ffffffff021916908363ffffffff160217905550606082015181600101600c6101000a81548163ffffffff021916908363ffffffff16021790555060808201518160010160106101000a81548161ffff021916908361ffff16021790555050500390507f0a5311bd2a6608f08a180df2ee7c5946819a649b204b554bb8e39825b2c50ad584828a8a89604051808673ffffffffffffffffffffffffffffffffffffffff1673ffffffffffffffffffffffffffffffffffffffff1681526020018581526020018481526020018381526020018281526020019550505050505060405180910390a162000257600085836200026560201b60201c565b809250505095945050505050565b600360008373ffffffffffffffffffffffffffffffffffffffff1673ffffffffffffffffffffffffffffffffffffffff16815260200190815260200160002060008154809291906001019190505550816002600083815260200190815260200160002060006101000a81548173ffffffffffffffffffffffffffffffffffffffff021916908373ffffffffffffffffffffffffffffffffffffffff160217905550600073ffffffffffffffffffffffffffffffffffffffff168373ffffffffffffffffffffffffffffffffffffffff1614620003c257600360008473ffffffffffffffffffffffffffffffffffffffff1673ffffffffffffffffffffffffffffffffffffffff16815260200190815260200160002060008154809291906001900391905055506004600082815260200190815260200160002060006101000a81549073ffffffffffffffffffffffffffffffffffffffff02191690555b808273ffffffffffffffffffffffffffffffffffffffff168473ffffffffffffffffffffffffffffffffffffffff167fddf252ad1be2c89b69c2b068fc378daa952ba7f163c4a11628f55a4df523b3ef60405160405180910390a4505050565b6040518060a0016040528060008152602001600067ffffffffffffffff168152602001600063ffffffff168152602001600063ffffffff168152602001600061ffff1681525090565b611bc4806200047b6000396000f3fe608060405234801561001057600080fd5b50600436106101375760003560e01c806395d89b41116100b8578063b88d4fde1161007c578063b88d4fde146106bb578063d5a776ca146107c0578063d9ecad7b14610802578063e985e9c51461084e578063e98b7f4d146108ca578063ef5e94aa1461092857610137565b806395d89b411461050e578063a22cb46514610591578063a45f4bfc146105e1578063a9059cbb1461064f578063b48343301461069d57610137565b806323b872dd116100ff57806323b872dd146102fe57806342842e0e1461036c578063481af3d3146103da5780636352211e1461044857806370a08231146104b657610137565b806301ffc9a71461013c57806306fdde03146101a1578063081812fc14610224578063095ea7b31461029257806318160ddd146102e0575b600080fd5b6101876004803603602081101561015257600080fd5b8101908080357bffffffffffffffffffffffffffffffffffffffffffffffffffffffff19169060200190929190505050610946565b604051808215151515815260200191505060405180910390f35b6101a96109e6565b6040518080602001828103825283818151815260200191508051906020019080838360005b838110156101e95780820151818401526020810190506101ce565b50505050905090810190601f1680156102165780820380516001836020036101000a031916815260200191505b509250505060405180910390f35b6102506004803603602081101561023a57600080fd5b8101908080359060200190929190505050610a1f565b604051808273ffffffffffffffffffffffffffffffffffffffff1673ffffffffffffffffffffffffffffffffffffffff16815260200191505060405180910390f35b6102de600480360360408110156102a857600080fd5b81019080803573ffffffffffffffffffffffffffffffffffffffff16906020019092919080359060200190929190505050610a6d565b005b6102e8610ae9565b6040518082815260200191505060405180910390f35b61036a6004803603606081101561031457600080fd5b81019080803573ffffffffffffffffffffffffffffffffffffffff169060200190929190803573ffffffffffffffffffffffffffffffffffffffff16906020019092919080359060200190929190505050610af6565b005b6103d86004803603606081101561038257600080fd5b81019080803573ffffffffffffffffffffffffffffffffffffffff169060200190929190803573ffffffffffffffffffffffffffffffffffffffff16906020019092919080359060200190929190505050610bbe565b005b610406600480360360208110156103f057600080fd5b8101908080359060200190929190505050610bde565b604051808273ffffffffffffffffffffffffffffffffffffffff1673ffffffffffffffffffffffffffffffffffffffff16815260200191505060405180910390f35b6104746004803603602081101561045e57600080fd5b8101908080359060200190929190505050610c11565b604051808273ffffffffffffffffffffffffffffffffffffffff1673ffffffffffffffffffffffffffffffffffffffff16815260200191505060405180910390f35b6104f8600480360360208110156104cc57600080fd5b81019080803573ffffffffffffffffffffffffffffffffffffffff169060200190929190505050610c4e565b6040518082815260200191505060405180910390f35b610516610c97565b6040518080602001828103825283818151815260200191508051906020019080838360005b8381101561055657808201518184015260208101905061053b565b50505050905090810190601f1680156105835780820380516001836020036101000a031916815260200191505b509250505060405180910390f35b6105df600480360360408110156105a757600080fd5b81019080803573ffffffffffffffffffffffffffffffffffffffff169060200190929190803515159060200190929190505050610cd0565b005b61060d600480360360208110156105f757600080fd5b8101908080359060200190929190505050610e0a565b604051808273ffffffffffffffffffffffffffffffffffffffff1673ffffffffffffffffffffffffffffffffffffffff16815260200191505060405180910390f35b61069b6004803603604081101561066557600080fd5b81019080803573ffffffffffffffffffffffffffffffffffffffff16906020019092919080359060200190929190505050610e3d565b005b6106a5610ed2565b6040518082815260200191505060405180910390f35b6107be600480360360808110156106d157600080fd5b81019080803573ffffffffffffffffffffffffffffffffffffffff169060200190929190803573ffffffffffffffffffffffffffffffffffffffff169060200190929190803590602001909291908035906020019064010000000081111561073857600080fd5b82018360208201111561074a57600080fd5b8035906020019184600183028401116401000000008311171561076c57600080fd5b91908080601f016020809104026020016040519081016040528093929190818152602001838380828437600081840152601f19601f820116905080830192505050505050509192919290505050610ed7565b005b6107ec600480360360208110156107d657600080fd5b8101908080359060200190929190505050610efe565b6040518082815260200191505060405180910390f35b6108386004803603604081101561081857600080fd5b810190808035906020019092919080359060200190929190505050610f7f565b6040518082815260200191505060405180910390f35b6108b06004803603604081101561086457600080fd5b81019080803573ffffffffffffffffffffffffffffffffffffffff169060200190929190803573ffffffffffffffffffffffffffffffffffffffff169060200190929190505050611115565b604051808215151515815260200191505060405180910390f35b6108f6600480360360208110156108e057600080fd5b81019080803590602001909291905050506111a9565b604051808681526020018581526020018481526020018381526020018281526020019550505050505060405180910390f35b610930611258565b6040518082815260200191505060405180910390f35b60006380ac58cd60e01b7bffffffffffffffffffffffffffffffffffffffffffffffffffffffff1916827bffffffffffffffffffffffffffffffffffffffffffffffffffffffff191614806109df57506301ffc9a760e01b7bffffffffffffffffffffffffffffffffffffffffffffffffffffffff1916827bffffffffffffffffffffffffffffffffffffffffffffffffffffffff1916145b9050919050565b6040518060400160405280600a81526020017f4c656f4b6974746965730000000000000000000000000000000000000000000081525081565b60006001805490508210610a3257600080fd5b6004600083815260200190815260200160002060009054906101000a900473ffffffffffffffffffffffffffffffffffffffff169050919050565b610a77338261125e565b610a8057600080fd5b610a8a81836112ca565b808273ffffffffffffffffffffffffffffffffffffffff163373ffffffffffffffffffffffffffffffffffffffff167f8c5be1e5ebec7d5bd14f71427d1e84f3dd0314c0f7b2291e5b200ac8c7c3b92560405160405180910390a45050565b6000600180549050905090565b600073ffffffffffffffffffffffffffffffffffffffff168273ffffffffffffffffffffffffffffffffffffffff161415610b3057600080fd5b8273ffffffffffffffffffffffffffffffffffffffff163373ffffffffffffffffffffffffffffffffffffffff161480610b705750610b6f3382611320565b5b80610b815750610b808333611115565b5b610b8a57600080fd5b610b94838261125e565b610b9d57600080fd5b6001805490508110610bae57600080fd5b610bb983838361138c565b505050565b610bd983838360405180602001604052806000815250610ed7565b505050565b60046020528060005260406000206000915054906101000a900473ffffffffffffffffffffffffffffffffffffffff1681565b60006002600083815260200190815260200160002060009054906101000a900473ffffffffffffffffffffffffffffffffffffffff169050919050565b6000600360008373ffffffffffffffffffffffffffffffffffffffff1673ffffffffffffffffffffffffffffffffffffffff168152602001908152602001600020549050919050565b6040518060400160405280600281526020017f464b00000000000000000000000000000000000000000000000000000000000081525081565b3373ffffffffffffffffffffffffffffffffffffffff168273ffffffffffffffffffffffffffffffffffffffff161415610d0957600080fd5b80600560003373ffffffffffffffffffffffffffffffffffffffff1673ffffffffffffffffffffffffffffffffffffffff16815260200190815260200160002060008473ffffffffffffffffffffffffffffffffffffffff1673ffffffffffffffffffffffffffffffffffffffff16815260200190815260200160002060006101000a81548160ff0219169083151502179055508173ffffffffffffffffffffffffffffffffffffffff163373ffffffffffffffffffffffffffffffffffffffff167f4ab86a02a3a55558db32d0e491b45a209c8310036f6e6d4a7195067e1d2b838483604051808215151515815260200191505060405180910390a35050565b60026020528060005260406000206000915054906101000a900473ffffffffffffffffffffffffffffffffffffffff1681565b600073ffffffffffffffffffffffffffffffffffffffff168273ffffffffffffffffffffffffffffffffffffffff161415610e7757600080fd5b3073ffffffffffffffffffffffffffffffffffffffff168273ffffffffffffffffffffffffffffffffffffffff161415610eb057600080fd5b610eba338261125e565b610ec357600080fd5b610ece33838361138c565b5050565b600a81565b610ee333858585611548565b610eec57600080fd5b610ef884848484611603565b50505050565b60008060009054906101000a900473ffffffffffffffffffffffffffffffffffffffff1673ffffffffffffffffffffffffffffffffffffffff163373ffffffffffffffffffffffffffffffffffffffff1614610f5957600080fd5b600a60065410610f6857600080fd5b600660008154809291906001019190505550919050565b6000610f8b338461125e565b610ffd576040517f08c379a000000000000000000000000000000000000000000000000000000000815260040180806020018281038252601e8152602001807f546865207573657220646f65736e74206f776e2074686520746f6b656e21000081525060200191505060405180910390fd5b611007338361125e565b611079576040517f08c379a000000000000000000000000000000000000000000000000000000000815260040180806020018281038252601e8152602001807f546865207573657220646f65736e74206f776e2074686520746f6b656e21000081525060200191505060405180910390fd5b600080611085856111a9565b94505050509150600080611098866111a9565b9450505050915060006110ab8584611629565b90506000809050828510156110d257600183019050600281816110ca57fe5b0490506110fa565b828511156110f257600185019050600281816110ea57fe5b0490506110f9565b6001830190505b5b611107888a83853361172d565b965050505050505092915050565b6000600560008473ffffffffffffffffffffffffffffffffffffffff1673ffffffffffffffffffffffffffffffffffffffff16815260200190815260200160002060008373ffffffffffffffffffffffffffffffffffffffff1673ffffffffffffffffffffffffffffffffffffffff16815260200190815260200160002060009054906101000a900460ff16905092915050565b600080600080600080600187815481106111bf57fe5b906000526020600020906002020190508060010160009054906101000a900467ffffffffffffffff1667ffffffffffffffff1694508060010160089054906101000a900463ffffffff1663ffffffff16935080600101600c9054906101000a900463ffffffff1663ffffffff1692508060010160109054906101000a900461ffff1661ffff169150806000015495505091939590929450565b60065481565b60008273ffffffffffffffffffffffffffffffffffffffff166002600084815260200190815260200160002060009054906101000a900473ffffffffffffffffffffffffffffffffffffffff1673ffffffffffffffffffffffffffffffffffffffff1614905092915050565b806004600084815260200190815260200160002060006101000a81548173ffffffffffffffffffffffffffffffffffffffff021916908373ffffffffffffffffffffffffffffffffffffffff1602179055505050565b60008273ffffffffffffffffffffffffffffffffffffffff166004600084815260200190815260200160002060009054906101000a900473ffffffffffffffffffffffffffffffffffffffff1673ffffffffffffffffffffffffffffffffffffffff1614905092915050565b600360008373ffffffffffffffffffffffffffffffffffffffff1673ffffffffffffffffffffffffffffffffffffffff16815260200190815260200160002060008154809291906001019190505550816002600083815260200190815260200160002060006101000a81548173ffffffffffffffffffffffffffffffffffffffff021916908373ffffffffffffffffffffffffffffffffffffffff160217905550600073ffffffffffffffffffffffffffffffffffffffff168373ffffffffffffffffffffffffffffffffffffffff16146114e857600360008473ffffffffffffffffffffffffffffffffffffffff1673ffffffffffffffffffffffffffffffffffffffff16815260200190815260200160002060008154809291906001900391905055506004600082815260200190815260200160002060006101000a81549073ffffffffffffffffffffffffffffffffffffffff02191690555b808273ffffffffffffffffffffffffffffffffffffffff168473ffffffffffffffffffffffffffffffffffffffff167fddf252ad1be2c89b69c2b068fc378daa952ba7f163c4a11628f55a4df523b3ef60405160405180910390a4505050565b6000600180549050821061155b57600080fd5b600073ffffffffffffffffffffffffffffffffffffffff168373ffffffffffffffffffffffffffffffffffffffff16141561159557600080fd5b61159f848361125e565b6115a857600080fd5b8373ffffffffffffffffffffffffffffffffffffffff168573ffffffffffffffffffffffffffffffffffffffff1614806115e857506115e78583611320565b5b806115f957506115f88486611115565b5b9050949350505050565b61160e84848461138c565b61161a848484846118f7565b61162357600080fd5b50505050565b6000611633611af4565b600060ff428161163f57fe5b069050600060019050600060079050600191505b608082116116df576000828460ff161614611690576064868161167257fe5b0660ff1684826008811061168257fe5b6020020181815250506116b4565b6064878161169a57fe5b0660ff168482600881106116aa57fe5b6020020181815250505b606486816116be57fe5b049550606487816116cb57fe5b049650600181039050600282029150611653565b60008092505b600883101561171f578483600881106116fa57fe5b60200201518101905060078314611712576064810290505b82806001019350506116e5565b809550505050505092915050565b6000611737611b17565b6040518060a001604052808581526020014267ffffffffffffffff1681526020018863ffffffff1681526020018763ffffffff1681526020018661ffff168152509050600060018083908060018154018082558091505090600182039060005260206000209060020201600090919290919091506000820151816000015560208201518160010160006101000a81548167ffffffffffffffff021916908367ffffffffffffffff16021790555060408201518160010160086101000a81548163ffffffff021916908363ffffffff160217905550606082015181600101600c6101000a81548163ffffffff021916908363ffffffff16021790555060808201518160010160106101000a81548161ffff021916908361ffff16021790555050500390507f0a5311bd2a6608f08a180df2ee7c5946819a649b204b554bb8e39825b2c50ad584828a8a89604051808673ffffffffffffffffffffffffffffffffffffffff1673ffffffffffffffffffffffffffffffffffffffff1681526020018581526020018481526020018381526020018281526020019550505050505060405180910390a16118e96000858361138c565b809250505095945050505050565b600061190284611adb565b61190f5760019050611ad3565b60008473ffffffffffffffffffffffffffffffffffffffff1663150b7a02338887876040518563ffffffff1660e01b8152600401808573ffffffffffffffffffffffffffffffffffffffff1673ffffffffffffffffffffffffffffffffffffffff1681526020018473ffffffffffffffffffffffffffffffffffffffff1673ffffffffffffffffffffffffffffffffffffffff16815260200183815260200180602001828103825283818151815260200191508051906020019080838360005b838110156119ea5780820151818401526020810190506119cf565b50505050905090810190601f168015611a175780820380516001836020036101000a031916815260200191505b5095505050505050602060405180830381600087803b158015611a3957600080fd5b505af1158015611a4d573d6000803e3d6000fd5b505050506040513d6020811015611a6357600080fd5b810190808051906020019092919050505090506040518080611b61602f9139602f01905060405180910390207bffffffffffffffffffffffffffffffffffffffffffffffffffffffff1916817bffffffffffffffffffffffffffffffffffffffffffffffffffffffff1916149150505b949350505050565b600080823b905060008163ffffffff1611915050919050565b604051806101000160405280600890602082028038833980820191505090505090565b6040518060a0016040528060008152602001600067ffffffffffffffff168152602001600063ffffffff168152602001600063ffffffff168152602001600061ffff168152509056fe6f6e455243373231526563656976656428616464726573732c616464726573732c75696e743235362c627974657329a265627a7a723158201ccc54305352238d572498398c0a4eb20cd31ac5709cffca3d972a608a2b53c064736f6c63430005110032",
  "source": "pragma solidity ^0.5.17;\r\n\r\nimport \"./IERC721.sol\";\r\nimport \"./IERC721Receiver.sol\";\r\nimport \"./Ownable.sol\";\r\n\r\ncontract Kittycontract is IERC721, Ownable {\r\n      \r\n      uint256 public constant CREATION_LIMIT_GEN0 = 10;\r\n      string public constant name = \"LeoKitties\";\r\n      string public constant symbol = \"FK\";\r\n      \r\n      bytes4 internal constant MAGIC_ERC_721_RECEIVED = bytes4(keccak256(\"onERC721Received(address,address,uint256,bytes)\"));\r\n\r\n      bytes4 private constant _INTERFACE_ID_ERC721 = 0x80ac58cd;\r\n      bytes4 private constant _INTERFACE_ID_ERC165 = 0x01ffc9a7;\r\n\r\n      event Birth(\r\n          address owner, \r\n      uint256 kittenId, \r\n      uint256 mumId, \r\n      uint256 dadId, \r\n      uint256 genes\r\n      );\r\n\r\n      struct Kitty {\r\n          uint256 genes;\r\n          uint64 birthTime;\r\n          uint32 mumId;\r\n          uint32 dadId;\r\n          uint16 generation;\r\n      }\r\n\r\n      Kitty[] kitties;\r\n\r\n      mapping (uint256 => address) public kittyIndexToOwner;\r\n      mapping (address => uint256) ownershipTokenCount;\r\n      mapping (uint256 => address) public kittyIndexToApproved;\r\n\r\nmapping (address => mapping (address => bool)) private _operatorApprovals;\r\n\r\n\r\nuint256 public gen0Counter;\r\n\r\nconstructor() public {\r\n    _createKitty(0, 0, 0, uint256(-1), address(0));\r\n}\r\nfunction breed(uint256 _dadId, uint256 _mumId) public returns (uint256) {\r\n    require(_owns(msg.sender, _dadId), \"The user doesnt own the token!\");\r\n    require(_owns(msg.sender, _mumId), \"The user doesnt own the token!\");\r\n\r\n    ( uint256 dadDna,,,,uint256 DadGeneration ) = getKitty(_dadId);\r\n    ( uint256 mumDna,,,,uint256 MumGeneration ) = getKitty(_mumId);\r\n\r\n    uint256 newDna = _mixDna(dadDna, mumDna);\r\n\r\n    uint256 kidGen = 0;\r\n    if (DadGeneration < MumGeneration){\r\n        kidGen = MumGeneration + 1;\r\n        kidGen /= 2;\r\n    } else if (DadGeneration > MumGeneration){\r\n        kidGen = DadGeneration + 1;\r\n        kidGen /= 2;\r\n    } else {\r\n        kidGen = MumGeneration + 1;\r\n    }\r\n    \r\n    return _createKitty(_mumId, _dadId, kidGen, newDna, msg.sender);\r\n\r\n\r\n    // check ownership\r\n    // You got the DNA\r\n    // Figure out the generation \r\n    // Create a new cat with new properties, give it to the msg.sender\r\n\r\n}\r\nfunction supportsInterface(bytes4 _interfaceId) external view returns (bool){\r\nreturn ( _interfaceId == _INTERFACE_ID_ERC721 || _interfaceId == _INTERFACE_ID_ERC165);\r\n}\r\n\r\nfunction safeTransferFrom(address _from, address _to, uint256 _tokenId) public {\r\n    safeTransferFrom(_from, _to, _tokenId, \"\");\r\n}\r\n\r\nfunction safeTransferFrom(address _from, address _to, uint256 _tokenId, bytes memory _data) public {\r\nrequire( _isApprovedOrOwner(msg.sender, _from, _to, _tokenId));\r\n_safeTransfer(_from, _to, _tokenId, _data);\r\n}\r\n\r\nevent ApproveForAll(address indexed owner, address indexed operator, bool approved);\r\n\r\nfunction createKittyGen0(uint256 _genes) public onlyOwner returns (uint256) {\r\nrequire(gen0Counter < CREATION_LIMIT_GEN0);\r\n\r\ngen0Counter++;\r\n\r\n\r\n\r\n}\r\n\r\nfunction getKitty(uint256 _id) public view returns (\r\n    uint256 genes,\r\n    uint256 birthTime,\r\n    uint256 mumId,\r\n    uint256 dadId,\r\n    uint256 generation\r\n)\r\n{\r\nKitty storage kitty = kitties[_id];\r\n\r\nbirthTime = uint256(kitty.birthTime);\r\nmumId = uint256(kitty.mumId);\r\ndadId = uint256(kitty.dadId);\r\ngeneration = uint256(kitty.generation);\r\ngenes = kitty.genes;\r\n}\r\n\r\nfunction _createKitty(\r\n    uint256 _mumId,\r\n    uint256 _dadId,\r\n    uint256 _generation,\r\n    uint256 _genes,\r\n    address _owner\r\n) private returns (uint256) {\r\n    Kitty memory _kitty = Kitty({\r\n        genes: _genes,\r\n        birthTime: uint64(now),\r\n        mumId: uint32(_mumId),\r\n        dadId: uint32(_dadId),\r\n        generation: uint16(_generation)\r\n    });\r\n\r\n    uint256 newKittenId = kitties.push(_kitty) - 1;\r\n    \r\n    emit Birth(_owner, newKittenId, _mumId, _dadId, _genes);\r\n    _transfer(address(0), _owner, newKittenId);\r\n    return newKittenId;\r\n    }\r\n\r\n\r\n\r\n\r\nfunction balanceOf(address owner) external view returns (uint256 balance) {\r\n    return ownershipTokenCount[owner];\r\n}\r\nfunction ownerOf(uint256 _tokenId) external view returns (address owner)\r\n{\r\n    return kittyIndexToOwner[_tokenId];\r\n}\r\n\r\nfunction transfer(address _to, uint256 _tokenId) external\r\n{\r\n    require(_to != address(0));\r\n    require(_to != address(this));\r\n    require(_owns(msg.sender, _tokenId));\r\n\r\n    _transfer(msg.sender, _to, _tokenId);\r\n}\r\n\r\nfunction _transfer(address _from, address _to, uint256 _tokenId) internal {\r\n    ownershipTokenCount[_to]++;\r\n\r\n    kittyIndexToOwner[_tokenId] = _to;\r\n\r\n    if (_from != address(0)) {\r\n        ownershipTokenCount[_from]--;\r\n        delete kittyIndexToApproved[_tokenId];\r\n    }\r\n\r\n    emit Transfer(_from, _to, _tokenId);\r\n}\r\n\r\nfunction _owns(address _claimant, uint256 _tokenId) internal view returns (bool) {\r\n    return kittyIndexToOwner[_tokenId] == _claimant;\r\n}\r\n\r\nfunction _approve(uint256 _tokenId, address _approved) internal {\r\n    kittyIndexToApproved[_tokenId] = _approved;\r\n}\r\nfunction _approvedFor(address _claimant, uint256 _tokenId) internal view returns (bool) {\r\n    return kittyIndexToApproved[_tokenId] == _claimant;\r\n}\r\nfunction _checkERC721Support(address _from, address _to, uint256 _tokenId, bytes memory _data) internal returns (bool) {\r\n    if( !_isContract(_to) ){\r\n        return true;\r\n    }\r\n    \r\n    bytes4 returnData = IERC721Receiver(_to).onERC721Received(msg.sender, _from, _tokenId, _data);\r\n    return returnData == MAGIC_ERC_721_RECEIVED;\r\n}\r\n\r\nfunction totalSupply() external view returns (uint256 total)\r\n{\r\n    return kitties.length;\r\n}\r\n\r\nfunction approve(address _to, uint256 _tokenId) public { \r\n\r\n    require(_owns(msg.sender, _tokenId));\r\n\r\n    _approve(_tokenId, _to);\r\n    emit Approval(msg.sender, _to, _tokenId);\r\n    }\r\n\r\n    function setApprovalForAll(address operator, bool approved) public {\r\n        require(operator != msg.sender);\r\n\r\n        _operatorApprovals[msg.sender][operator] = approved;\r\n        emit ApproveForAll(msg.sender, operator, approved);\r\n    }\r\n    \r\n    function getApproved(uint256 _tokenId) public view returns (address) {\r\n        require(_tokenId < kitties.length);\r\n\r\n        return kittyIndexToApproved[_tokenId];\r\n    }\r\n    function isApprovedForAll(address _owner, address _operator) public view returns (bool) {\r\n        return _operatorApprovals[_owner][_operator];\r\n    }\r\n\r\n    function _safeTransfer(address _from, address _to, uint256 _tokenId, bytes memory _data) internal {\r\n             _transfer(_from, _to, _tokenId);\r\n             require( _checkERC721Support(_from, _to, _tokenId, _data));\r\n           }\r\n\r\n\r\n\r\n    function transferFrom(address _from, address _to, uint256 _tokenId) public {\r\n        require(_to != address(0));\r\n        require(msg.sender == _from || _approvedFor(msg.sender, _tokenId) || isApprovedForAll(_from, msg.sender));\r\n        require(_owns(_from, _tokenId));\r\n        require(_tokenId < kitties.length);\r\n\r\n        _transfer(_from, _to, _tokenId);\r\n    }\r\n\r\n    function _isContract(address _to) view internal returns (bool){\r\n        uint32 size;\r\n        assembly{\r\n            size := extcodesize(_to)\r\n        }\r\n        return size > 0;\r\n    }\r\n\r\n    function _isApprovedOrOwner(address _spender, address _from, address _to, uint256 _tokenId) internal view returns (bool) {\r\n    require(_tokenId < kitties.length);\r\n    require(_to != address(0));\r\n    require(_owns(_from, _tokenId));\r\n\r\n    return (_spender == _from || _approvedFor(_spender, _tokenId) || isApprovedForAll(_from, _spender));\r\n    }\r\n\r\n    function _mixDna(uint256 _dadDna, uint256 _mumDna) internal returns (uint256) {\r\n      uint256[8] memory geneArray;\r\n      uint8 random = uint8( now % 255 ); // 0-255 00000000-11111111\r\n      uint256 i = 1;\r\n      uint256 index = 7;\r\n      for (i = 1; i <= 128; i=i*2) {\r\n          if(random & i != 0){\r\n              geneArray[index] = uint8( _mumDna % 100);\r\n          }\r\n          else{\r\n              geneArray[index] = uint8( _dadDna % 100);\r\n          }\r\n          _mumDna = _mumDna / 100;\r\n          _dadDna = _dadDna / 100;\r\n\r\n          index = index - 1;\r\n          // 1, 2, 4, 8, 16, 32, 64, 128\r\n          /*\r\n          00000001 - 1\r\n          00000010 - 2\r\n          00000100 - 4\r\n          00001000 - 8\r\n          00010000 - 16\r\n          00100000 - 32\r\n          01000000 - 64\r\n          10000000 - 128\r\n          \r\n          */\r\n      }\r\n      uint256 newGene;\r\n      for (i = 0; i < 8; i++) {\r\n          newGene = newGene + geneArray[i];\r\n          if(i != 7){\r\n          newGene = newGene * 100;\r\n          }\r\n          \r\n\r\n      }\r\n\r\n      return newGene;\r\n    }\r\n}",
  "sourcePath": "C:\\Users\\HP Elitebook\\Documents\\NFTwebsite\\academy-kitties-template\\contracts\\kittycontract.sol",
  "compiler": {
    "name": "solc",
    "version": "0.5.17+commit.d19bba13.Emscripten.clang"
  },
  "schemaVersion": "3.4.3",
  "updatedAt": "2022-03-30T12:17:03.983Z",
  "devdoc": {
    "methods": {}
  },
  "userdoc": {
    "methods": {}
  }
}